:020000020000FC
:10000000003F0106025B034F0466056D067D07078E
:10001000087F096709E018E027E036E0202E312E3E
:10002000422E532E2FEF21BB40E059E02FD000008D
:10003000451709F440E04395C19A22BA85E090E063
:1000400014D0C198C29A32BA85E090E00ED0C2981E
:10005000C39A42BA85E090E008D0C398C49A52BAD5
:1000600085E090E002D0C498E3CF8F939F9305D0B2
:100070009F918F910197C9F708958F939F9389EC72
:1000800097E00197F1F79F918F9108950491319630
:1000900031962016D9F731972490E0E0F0E00491F2
:1000A000319631963016D9F731973490E0E0F0E090
:1000B0000491319631964016D9F731974490E0E09B
:1000C000F0E00491319631965016D9F7319754905B
:0200D000089591
:00000001FF
