:020000020000FC
:1000000081E090E016E002E828EE33E0442755272F
:1000100066277727021B130B39F0680F791F021729
:10002000130718F0F7CF680F791F402F512F6F93E8
:10003000000081E090E0152F042F24E630E04427F3
:10004000552766277727021B130B39F0680F791F96
:100050000217130718F0F7CF680F791F402F512FA1
:100060006F93000081E090E0152F042F2AE030E02C
:100070004427552766277727021B130B39F0680F93
:10008000791F0217130718F0F7CF680F791F402F59
:10009000512F6F934F936F917F918F919F9100009C
:00000001FF
