:020000020000FC
:1000000000E0202E00E0302E00E0402E00E0502ED8
:100010000FE712E001BB02BB17BB48BB0AE08FEF42
:1000200090E010E000E0112E002E8FE097E20394A4
:1000300008161906A1F0112D002D14D044D00F93ED
:100040001F9304E610E01F930F93B0D01F910F9100
:100050001F910F918FEF0812E8CF1394E6CF002481
:100060001124E3CF33E028EE14D0262E152F042FD1
:1000700024E630E00ED0362E152F042F2AE030E093
:1000800008D0462E152F042F21E030E002D0562E46
:10009000089581E090E044275527662777270217C7
:1000A000130760F00000021B130B31F0680F791F7B
:1000B0000217130718F0F6CF680F791F0000402FC2
:1000C000512F0000089500000F931F932F93EF937B
:1000D00013E01093600045D018BB02BB0F911F9135
:1000E0002F91EF91FF910F931F932F93EF9312E0B6
:1000F0001093600036D018BB02BB0F911F912F9157
:10010000EF91FF910F931F932F93EF9311E01093B3
:10011000600027D018BB02BB0F911F912F91EF9168
:10012000FF910F931F932F93EF9310E010936000B4
:1001300018D018BB02BB0F911F912F91EF91FF9127
:100140000895022D009361001AC0032D00936100F1
:1001500016C0042D0093610012C0052D00936100AC
:100160000EC020E010916000121759F3239512176A
:1001700061F32395121769F32395121771F30000A9
:1001800009D0EEE8F1E010916000E10F1491020453
:1001900008100895E0EAF1E000916100E00F049199
:1001A0003F065B4F666D7D077F6F08951F930F932A
:1001B0000BD00F911F910A95C9F713951A9519F055
:1001C0000FEF1A95F3CF089514E01F9306E70F93EE
:1001D00000000F910A950F93D9F70F911F911A956F
:0C01E0001F930F93A9F70F911F91089532
:00000001FF
