:020000020000FC
:10000000CF93DF93C02DD12D21960C2E1D2EDF9185
:10001000CF9181E090E010E00AE028EE33E0442741
:10002000552766277727DF93D0E0D017DF9148F078
:10003000021B130B11F0680F791F0217130718F03A
:10004000F7CF680F791F402F512F6F93000081E089
:1000500090E0152F042F24E630E04427552766272B
:100060007727DF93D0E0D017DF9148F0021B130B06
:1000700011F0680F791F0217130718F0F7CF680FF8
:10008000791F402F512F6F93000081E090E0152FD2
:10009000042F2AE030E04427552766277727DF938F
:1000A000D0E0D017DF9148F0021B130B11F0680F5E
:1000B000791F0217130718F0F7CF680F791F402F29
:1000C000512F6F934F936F917F918F919F9100006C
:00000001FF
